{
  "contractName": "Doobem",
  "abi": [
    {
      "constant": true,
      "inputs": [
        {
          "internalType": "uint256",
          "name": "",
          "type": "uint256"
        }
      ],
      "name": "volunteers",
      "outputs": [
        {
          "internalType": "address",
          "name": "",
          "type": "address"
        }
      ],
      "payable": false,
      "stateMutability": "view",
      "type": "function"
    },
    {
      "constant": false,
      "inputs": [
        {
          "internalType": "uint256",
          "name": "jobId",
          "type": "uint256"
        }
      ],
      "name": "choose",
      "outputs": [
        {
          "internalType": "uint256",
          "name": "",
          "type": "uint256"
        }
      ],
      "payable": false,
      "stateMutability": "nonpayable",
      "type": "function"
    },
    {
      "constant": true,
      "inputs": [],
      "name": "getvolunteers",
      "outputs": [
        {
          "internalType": "address[8]",
          "name": "",
          "type": "address[8]"
        }
      ],
      "payable": false,
      "stateMutability": "view",
      "type": "function"
    }
  ],
  "bytecode": "0x608060405234801561001057600080fd5b506102b9806100206000396000f3fe608060405234801561001057600080fd5b50600436106100415760003560e01c80630bb0b13a1461004657806317e81235146100885780633dbf8cc5146100ce575b600080fd5b6100726004803603602081101561005c57600080fd5b810190808035906020019092919050505061013c565b6040518082815260200191505060405180910390f35b6100906101ad565b6040518082600860200280838360005b838110156100bb5780820151818401526020810190506100a0565b5050505090500191505060405180910390f35b6100fa600480360360208110156100e457600080fd5b810190808035906020019092919050505061022e565b604051808273ffffffffffffffffffffffffffffffffffffffff1673ffffffffffffffffffffffffffffffffffffffff16815260200191505060405180910390f35b600080821015801561014f575060078211155b61015857600080fd5b336000836008811061016657fe5b0160006101000a81548173ffffffffffffffffffffffffffffffffffffffff021916908373ffffffffffffffffffffffffffffffffffffffff160217905550819050919050565b6101b5610261565b6000600880602002604051908101604052809291908260088015610224576020028201915b8160009054906101000a900473ffffffffffffffffffffffffffffffffffffffff1673ffffffffffffffffffffffffffffffffffffffff16815260200190600101908083116101da575b5050505050905090565b6000816008811061023b57fe5b016000915054906101000a900473ffffffffffffffffffffffffffffffffffffffff1681565b60405180610100016040528060089060208202803883398082019150509050509056fea265627a7a723158206f84ff79877b5525e14daf7983b6a4c31080f7df85c0ad93d5724ca59882e29a64736f6c63430005100032",
  "source": "// SPDX-License-Identifier: MIT\r\npragma solidity >=0.5.0;\r\n\r\ncontract Doobem {\r\n    address[8] public volunteers;\r\n\r\n// choosing a job\r\nfunction choose(uint jobId) public returns (uint) {\r\n  require(jobId >= 0 && jobId <= 7);\r\n\r\n  volunteers[jobId] = msg.sender;\r\n\r\n  return jobId;\r\n  }\r\n\r\n  function getvolunteers() public view returns (address[8] memory) {\r\n  return volunteers;\r\n}\r\n\r\n}\r\n\r\n\r\n\r\n//  Compile:        truffle compile\r\n//  Migrate:        truffle migrate\r\n//Test contracts: truffle test\r\n // Run dev server: npm run dev\r\n // git add.\r\n //git commit -m \"MENSAGEM” git commit -m \"MENSAGEM”\r\n //git push -u origin main\r\n //git checkout <sua-branch> && git pull origin <sua-branch>\r\n //leia com atenção: se você não quer as alterações que estão no remoto, e quer sobrescrever tudo que está lá com o repositório local, use COM CUIDADO o comando abaixo.\r\n //git push origin <sua-branch> --force\r\n // Web3 usei o link do curso https://github.com/ChainSafe/web3.js we3libraries used npm install web3 deu erro GET https://cdn.jsdelivr.net/npm/web3@latest/dist/web3.min.js net::ERR_FAILED\r\n //no passo 2 do web3 módulo 4\r\n //npm install -g lite-server pra instalar lite-server\r\n //git remote set-url origin https://github.com/keilaestuda/pet-shop-tutorial-29_10\r\n //git push origin master\r\n //git remote update depois git push --force origin master\r\n",
  "sourcePath": "C:\\Users\\User\\Documents\\GitHub\\-blockchain-developer-bootcamp-final-project\\contracts\\Doobem.sol",
  "compiler": {
    "name": "solc",
    "version": "0.5.16+commit.9c3226ce.Emscripten.clang"
  },
  "schemaVersion": "3.4.3",
  "updatedAt": "2022-01-09T20:55:44.916Z",
  "networkType": "ethereum",
  "devdoc": {
    "methods": {}
  },
  "userdoc": {
    "methods": {}
  }
}